:020000040800F2
:1000000000800020818B0008F1280008F3280008F8
:10001000F5280008F7280008F9280008000000006B
:10002000000000000000000000000000FB280008A5
:10003000FD28000800000000FF2800080129000832
:10004000D58B0008D58B0008D58B0008D58B000810
:10005000D58B0008D58B0008D58B0008D58B000800
:10006000D58B0008D58B0008D58B0008D58B0008F0
:100070000929000819290008D58B0008D58B00082C
:10008000D58B00080000000029290008D58B000846
:10009000D58B0008D58B0008D58B0008D58B0008C0
:1000A0003929000849290008592900086929000848
:1000B000D58B00087929000889290008D58B00080C
:1000C000D58B0008D58B0008D58B0008992900082E
:1000D000D58B0008A9290008D58B0008D58B00080E
:1000E000D58B0008D58B0008D58B0008D58B000870
:1000F000D58B0008D58B0008D58B000800000000C8
:1001000000000000D58B000800000000D58B00081F
:10011000D58B000800000000D58B0008D58B0008A7
:10012000D58B0008D58B0008D58B0008D58B00082F
:10013000D58B00080000000000000000D58B0008EF
:10014000D58B0008D58B00080000000000000000DF
:10015000000000000000000000000000000000009F
:10016000000000000000000000000000D58B000827
:10017000D58B000800000000000000000000000017
:1001800000000000D58B0008000000000000000007
:10019000000000000000000000000000000000005F
:1001A0000000000000000000D58B0008D58B00087F
:1001B000D58B0008D58B0008D58B00080000000007
:1001C00000000000D58B00080000000000000000C7
:0801D000D58B0008D58B000857
:1001E00010F8012B11F8013B012A28BF9A42F7D0E1
:1001F000D01A70470000000000000000000000005E
:1002000001F0FF01102A2BDB10F0070F08D010F8C7
:10021000013B013A8B422DD010F0070F42B3F6D1CB
:10022000F0B441EA012141EA014122F007047FF0E4
:1002300000070023F0E80256083C85EA010586EA3B
:10024000010685FA47F5A3FA87F586FA47F6A5FA77
:1002500087F68EB9EED1F0BC01F0FF0102F0070283
:1002600032B110F8013B013A83EA010313B1F8D12E
:100270000020704701387047002D06BF354603380F
:10028000073815F0010F07D1013015F4807F02BF48
:10029000013015F4C03F0130F0BC0138704700BF99
:1002A00081F0004102E000BF83F0004330B54FEA27
:1002B00041044FEA430594EA050F08BF90EA020F94
:1002C0001FBF54EA000C55EA020C7FEA645C7FEA27
:1002D000655C00F0E2804FEA5454D4EB5555B8BF4A
:1002E0006D420CDD2C4480EA020281EA030382EABB
:1002F000000083EA010180EA020281EA0303362D4D
:1003000088BF30BD11F0004F4FEA01314FF4801C1F
:100310004CEA113102D0404261EB410113F0004F31
:100320004FEA03334CEA133302D0524263EB4303E8
:1003300094EA050F00F0A780A4F10104D5F1200E86
:100340000DDB02FA0EFC22FA05F2801841F10001E1
:1003500003FA0EF2801843FA05F359410EE0A5F1B5
:1003600020050EF1200E012A03FA0EFC28BF4CF0E6
:10037000020C43FA05F3C01851EBE37101F000459C
:1003800007D54FF0000EDCF1000C7EEB00006EEBA9
:100390000101B1F5801F1BD3B1F5001F0CD3490833
:1003A0005FEA30004FEA3C0C04F101044FEA44528A
:1003B00012F5800F80F09A80BCF1004F08BF5FEA11
:1003C000500C50F1000041EB045141EA050130BDF1
:1003D0005FEA4C0C404141EB0101013C28BFB1F503
:1003E000801FE9D291F0000F04BF01460020B1FA4E
:1003F00081F308BF2033A3F10B03B3F120020CDA21
:100400000C3208DD02F1140CC2F10C0201FA0CF0FE
:1004100021FA02F10CE002F11402D8BFC2F1200C63
:1004200001FA02F120FA0CFCDCBF41EA0C01904019
:10043000E41AA2BF01EB0451294330BD6FEA040462
:100440001F3C1CDA0C340EDC04F11404C4F120024D
:1004500020FA04F001FA02F340EA030021FA04F35F
:1004600045EA030130BDC4F10C04C4F1200220FAB6
:1004700002F001FA04F340EA0300294630BD21FAF4
:1004800004F0294630BD94F0000F83F4801306BFBA
:1004900081F480110134013D4EE77FEA645C18BFAE
:1004A0007FEA655C29D094EA050F08BF90EA020F45
:1004B00005D054EA000C04BF1946104630BD91EA3D
:1004C000030F1EBF0021002030BD5FEA545C05D140
:1004D0004000494128BF41F0004130BD14F580047F
:1004E0003CBF01F5801130BD01F0004545F0FE41F3
:1004F00041F470014FF0000030BD7FEA645C1ABF28
:10050000194610467FEA655C1CBF0B46024650EA5E
:10051000013406BF52EA033591EA030F41F400218A
:1005200030BD00BF90F0000F04BF0021704730B510
:100530004FF4806404F132044FF000054FF00001E5
:1005400050E700BF90F0000F04BF0021704730B5A6
:100550004FF4806404F1320410F0004548BF40427B
:100560004FF000013EE700BF42004FEAE2014FEAD0
:1005700031014FEA02701FBF12F07F4393F07F4FAB
:1005800081F06051704732F07F4208BF704793F0AE
:100590007F4F04BF41F40021704730B54FF46074C1
:1005A00001F0004521F000411CE700BF50EA0102C4
:1005B00008BF704730B54FF000050AE050EA01026D
:1005C00008BF704730B511F0004502D5404261EBDD
:1005D00041014FF4806404F132045FEA915C3FF41E
:1005E000D8AE4FF003025FEADC0C18BF03325FEABB
:1005F000DC0C18BF033202EBDC02C2F1200300FA6C
:1006000003FC20FA02F001FA03FE40EA0E0021FA90
:1006100002F11444BDE600BF70B54FF0FF0C4CF47E
:10062000E06C1CEA11541DBF1CEA135594EA0C0F30
:1006300095EA0C0F00F0DEF82C4481EA030621EA6B
:100640004C5123EA4C5350EA013518BF52EA0335A6
:1006500041F4801143F4801338D0A0FB02CE4FF058
:100660000005E1FB02E506F00042E0FB03E54FF088
:100670000006E1FB03569CF0000F18BF4EF0010E80
:10068000A4F1FF04B6F5007F64F5407404D25FEA7C
:100690004E0E6D4146EB060642EAC62141EA55512F
:1006A0004FEAC52040EA5E504FEACE2EB4F1FD0C71
:1006B00088BFBCF5E06F1ED8BEF1004F08BF5FEAEF
:1006C000500E50F1000041EB045170BD06F00046A1
:1006D00046EA010140EA020081EA0301B4EB5C044E
:1006E000C2BFD4EB0C0541EA045170BD41F4801146
:1006F0004FF0000E013C00F3AB8014F1360FDEBF6B
:10070000002001F0004170BDC4F10004203C35DA46
:100710000C341BDC04F11404C4F1200500FA05F3C9
:1007200020FA04F001FA05F240EA020001F000426A
:1007300021F0004110EBD37021FA04F642EB0601E0
:100740005EEA430E08BF20EAD37070BDC4F10C040A
:10075000C4F1200500FA04F320FA05F001FA04F2CE
:1007600040EA020001F0004110EBD37041F10001BA
:100770005EEA430E08BF20EAD37070BDC4F12005C5
:1007800000FA05F24EEA020E20FA04F301FA05F22D
:1007900043EA020321FA04F001F0004121FA04F2D5
:1007A00020EA020000EBD3705EEA430E08BF20EAA5
:1007B000D37070BD94F0000F0FD101F000464000DF
:1007C00041EB010111F4801F08BF013CF7D041EA61
:1007D000060195F0000F18BF704703F00046520065
:1007E00043EB030313F4801F08BF013DF7D043EA36
:1007F0000603704794EA0C0F0CEA135518BF95EAEC
:100800000C0F0CD050EA410618BF52EA4306D1D172
:1008100081EA030101F000414FF0000070BD50EA91
:10082000410606BF1046194652EA430619D094EA1B
:100830000C0F02D150EA013613D195EA0C0F05D105
:1008400052EA03361CBF104619460AD181EA030159
:1008500001F0004141F0FE4141F470014FF0000011
:1008600070BD41F0FE4141F4780170BD70B54FF0AC
:10087000FF0C4CF4E06C1CEA11541DBF1CEA13552C
:1008800094EA0C0F95EA0C0F00F0A7F8A4EB05040E
:1008900081EA030E52EA03354FEA013100F0888005
:1008A0004FEA03334FF0805545EA131343EA1263CE
:1008B0004FEA022245EA111545EA10654FEA002683
:1008C0000EF000419D4208BF964244F1FD0404F53C
:1008D000407402D25B084FEA3202B61A65EB030598
:1008E0005B084FEA32024FF480104FF4002CB6EB55
:1008F000020E75EB030E22BFB61A754640EA0C00D5
:100900005B084FEA3202B6EB020E75EB030E22BF14
:10091000B61A754640EA5C005B084FEA3202B6EB55
:10092000020E75EB030E22BFB61A754640EA9C0014
:100930005B084FEA3202B6EB020E75EB030E22BFE4
:10094000B61A754640EADC0055EA060E18D04FEAA2
:10095000051545EA16754FEA06164FEAC30343EA42
:1009600052734FEAC2025FEA1C1CC0D111F4801F0F
:100970000BD141EA00014FF000004FF0004CB6E708
:1009800011F4801F04BF01430020B4F1FD0C88BFA7
:10099000BCF5E06F3FF6AFAEB5EB030C04BFB6EBB2
:1009A000020C5FEA500C50F1000041EB045170BDA5
:1009B0000EF0004E4EEA113114EB5C04C2BFD4EBD2
:1009C0000C0541EA045170BD41F480114FF0000E56
:1009D000013C90E645EA060E8DE60CEA135594EAD2
:1009E0000C0F08BF95EA0C0F3FF43BAF94EA0C0FD5
:1009F0000AD150EA01347FF434AF95EA0C0F7FF44A
:100A000025AF104619462CE795EA0C0F06D152EA9D
:100A100003353FF4FDAE1046194622E750EA410681
:100A200018BF52EA43067FF4C5AE50EA41047FF492
:100A30000DAF52EA43057FF4EBAE12E74FF0FF3CF7
:100A400006E000BF4FF0010C02E000BF4FF0010CC8
:100A50004DF804CD4FEA410C7FEA6C5C4FEA430C41
:100A600018BF7FEA6C5C1BD001B050EA410C0CBF90
:100A700052EA430C91EA030F02BF90EA020F0020F2
:100A8000704710F1000F91EA030F58BF994208BF59
:100A900090422CBFD8176FEAE37040F00100704716
:100AA0004FEA410C7FEA6C5C02D150EA013C07D16D
:100AB0004FEA430C7FEA6C5CD6D152EA033CD3D0B8
:100AC0005DF8040B704700BF8446104662468C46B2
:100AD0001946634600E000BF01B5FFF7B7FF0028E5
:100AE00048BF10F1000F01BD4DF808EDFFF7F4FF0E
:100AF0000CBF012000205DF808FB00BF4DF808ED99
:100B0000FFF7EAFF34BF012000205DF808FB00BFBB
:100B10004DF808EDFFF7E0FF94BF012000205DF8DD
:100B200008FB00BF4DF808EDFFF7CEFF94BF012092
:100B300000205DF808FB00BF4DF808EDFFF7C4FF8B
:100B400034BF012000205DF808FB00BF4FEA410CD4
:100B50007FEA6C5C02D150EA013C0AD14FEA430CB7
:100B60007FEA6C5C02D152EA033C02D14FF00000F4
:100B700070474FF0010070474FEA410212F5001232
:100B800015D211D56FF47873B3EB625212D94FEAD4
:100B9000C12343F0004343EA505311F0004F23FABE
:100BA00002F018BF404270474FF00000704750EA13
:100BB000013005D111F0004008BF6FF000407047D0
:100BC0004FF00000704700BF4A0011D212F500122A
:100BD00011D20DD56FF47873B3EB62520ED44FEA95
:100BE000C12343F0004343EA505323FA02F0704715
:100BF0004FF00000704750EA013002D14FF0FF3053
:100C000070474FF0000070474FEA4102B2F1E043F5
:100C100024BFB3F5001CDCF1FE5C0DD901F0004CE3
:100C20004FEAC0024CEA5070B2F1004F40EB830033
:100C300008BF20F00100704711F0804F21D113F15F
:100C40003872BCBF01F00040704741F480114FEA98
:100C50005252C2F11802C2F1200C10FA0CF320FA21
:100C600002F018BF40F001004FEAC1234FEAD3233E
:100C700003FA0CFC40EA0C0023FA02F34FEA4303A8
:100C8000CCE77FEA625307D150EA01331EBF4FF031
:100C9000FE4040F44000704701F0004040F0FE404C
:100CA00040F40000704700BF53B94AB9002908BF9B
:100CB00000281CBF4FF0FF314FF0FF3000F00CB8A0
:100CC000ADF1080C6DE904CE0CF0ECFCDDF804E0AD
:100CD000DDE9022304B07047704700BF0348044BAE
:100CE000834202D0034B03B1184770470002002033
:100CF00000020020000000000548064B1B1AD90F17
:100D000001EBA301491002D0034B03B11847704710
:100D100000020020000200200000000010B5064C78
:100D2000237843B9FFF7DAFF044B13B10448AFF35C
:100D300000800123237010BD00020020000000008D
:100D400064DA000808B5054B1BB105490548AFF347
:100D50000080BDE80840FFF7CFBF00BF00000000E3
:100D60000402002064DA000872B6054B1B68586A5A
:100D7000044B1B68C3EB0343184462B6704700BFC3
:100D800040040020E402002070B588B005463D21F3
:100D900008F00BFE002800F083820446212128463B
:100DA00008F003FE002800F07E8222460134294626
:100DB000521B1646051B04A808F017FE2A462146BA
:100DC000684608F012FE334620336B44002203F8D5
:100DD000102C05F120036B4403F8202CB14904A822
:100DE000FFF7FEF9002800F0C080AF4904A8FFF724
:100DF000F7F9002800F0C580AC4904A8FFF7F0F926
:100E0000002800F0CA80AA4904A8FFF7E9F90028E1
:100E100000F0CF80A74904A8FFF7E2F9002800F00E
:100E2000D480A54904A8FFF7DBF9002800F0D98099
:100E3000A24904A8FFF7D4F9002800F0DE80A049F9
:100E400004A8FFF7CDF9002800F0E3809D4904A82D
:100E5000FFF7C6F9002800F0E8809B4904A8FFF7D7
:100E6000BFF9002800F0ED80984904A8FFF7B8F911
:100E7000002800F0F280964904A8FFF7B1F9002895
:100E800000F0F780934904A8FFF7AAF9002800F0C2
:100E9000FC80914904A8FFF7A3F9002800F04881DD
:100EA0008E4904A8FFF79CF9002800F04D818C4979
:100EB00004A8FFF795F9002800F05281894904A899
:100EC000FFF78EF9002800F05781874904A8FFF743
:100ED00087F9002800F05C81844904A8FFF780F9B5
:100EE000002800F06181824904A8FFF779F9002801
:100EF00000F066817F4904A8FFF772F9002800F02E
:100F00006B817D4904A8FFF76BF9002800F0708120
:100F10007A4904A8FFF764F9002800F07581784940
:100F200004A8FFF75DF9002800F07A81754904A84C
:100F3000FFF756F9002800F07F81734904A8FFF7F6
:100F40004FF9002800F08481704904A8FFF748F9A0
:100F5000002800F089816E4904A8FFF741F90028B4
:100F600000F09281B7EE000A9FE1684607F033FE79
:100F700051EC100BFFF748FE664B1860B7EE000A05
:100F800093E1684607F027FE51EC100BFFF73CFE9B
:100F9000604B5860B7EE000A87E1684607F01BFE19
:100FA00051EC100BFFF730FE5A4B9860B7EE000A79
:100FB0007BE1684607F00FFE51EC100BFFF724FEB3
:100FC000554B1860B7EE000A6FE1684607F003FE64
:100FD00051EC100BFFF718FE504B1860B7EE000AEB
:100FE00063E1684607F0F7FD51EC100BFFF70CFECC
:100FF0004B4B1860B7EE000A57E1684607F0EBFD6F
:1010000051EC100BFFF700FE454B5860B7EE000A9D
:101010004BE1684607F0DFFD51EC100BFFF7F4FDE4
:101020003F4B9860B7EE000A3FE1684607F0D3FDFA
:1010300051EC100BFFF7E8FD3A4B1860B7EE000AD1
:1010400033E1684607F0C7FD51EC100BFFF7DCFDFC
:10105000354B1860B7EE000A27E1684607F0BBFD84
:1010600051EC100BFFF7D0FD304B1860B7EE000AC3
:101070001BE1684607F0AFFD51EC100BFFF7C4FD14
:101080002A4B5860B7EE000A0FE1684607F0A3FD4F
:1010900051EC100BFFF7B8FD244B9860B7EE000A37
:1010A00003E100BF80DA000884DA000888DA00086B
:1010B0008CDA000890DA000894DA000898DA000860
:1010C0009CDA0008A0DA0008A4DA0008A8DA000810
:1010D000ACDA0008B0DA0008B4DA0008B8DA0008C0
:1010E000BCDA0008C0DA0008C4DA0008C8DA000870
:1010F000CCDA0008D0DA0008D4DA0008D8DA000820
:10110000DCDA0008E0DA0008E4DA0008E8DA0008CF
:10111000ECDA0008F407002018000020140000207A
:101120007007002088060020840600201807002091
:10113000684607F050FD51EC100BFFF765FD5D4B65
:101140001860B7EE000AB0E0684607F044FD51ECC5
:10115000100BFFF759FD574B5860B7EE000AA4E09B
:10116000684607F038FD51EC100BFFF74DFD514B71
:101170009860B7EE000A98E0684607F02CFD51EC45
:10118000100BFFF741FD4C4B1860B7EE000A8CE0E6
:10119000684607F020FD51EC100BFFF735FD464B7C
:1011A0005860B7EE000A80E0684607F014FD51EC85
:1011B000100BFFF729FD404B9860B7EE000A74E072
:1011C000684607F008FD51EC100BFFF71DFD3B4B87
:1011D0001860B7EE000A68E0684607F0FCFC51ECC6
:1011E000100BFFF711FD354B5860B7EE000A5CE0BD
:1011F000684607F0F0FC51EC100BFFF705FD2F4B94
:101200009860B7EE000A50E0684607F0E4FC51EC45
:10121000100BFFF7F9FC2A4B1860B7EE000A44E008
:10122000684607F0D8FC51EC100BFFF7EDFC244B9F
:101230005860B7EE000A38E0684607F0CCFC51EC85
:10124000100BFFF7E1FC1E4B9860B7EE000A2CE094
:10125000684607F0C0FC51EC100BFFF7D5FC194BAA
:101260001860B7EE000A20E0684607F0B4FC51ECC5
:10127000100B0022144BFFF75FFCC0B1134B01228F
:101280001A70B7EE000A10E0684607F0A4FC51ECB3
:10129000100BFFF7B9FC0E4B1860B7EE000A04E024
:1012A000BFEE000A01E0B8EE000A08B070BDB7EE6C
:1012B000000AFAE7EC06002044070020C8070020D7
:1012C0009C070020100000200000E03F7C0200206E
:1012D0000C00002008B5364BD3ED007AF5EEC07A4D
:1012E000F1EE10FA33D4F5EE407AF1EE10FA38D080
:1012F000B7EE007AF4EE477AF1EE10FA37D0B0EE9E
:10130000007AF4EE477AF1EE10FA36D0B0EE087AB1
:10131000F4EE477AF1EE10FA38D0B1EE007AF4EE3E
:10132000477AF1EE10FA37D0B1EE047AF4EE477A4C
:10133000F1EE10FA36D0B1EE087AF4EE477AF1EE1B
:1013400010FA0DD19FED1B0A07F08CF808E09FED15
:101350001A0A1A4B93ED001AF0EE400A06F054FDFB
:1013600008BD174B93ED000A07F09AF8F8E7154B04
:1013700093ED000A07F0D8F8F2E7134BD3ED000A1B
:10138000124B93ED000A07F01FF9E9E70D4B93EDBF
:10139000000A07F04FF9E3E7094B93ED000A07F065
:1013A0009FF9DDE7064B93ED000A07F07FF9D7E7D9
:1013B00010000020CDCCCC3D000000002008002013
:1013C0001800002014000020840600208806002059
:1013D00008B506F0B5FE0B4BD3ED006A0A4BD3ED12
:1013E000007A86EEA77A094BD3ED007AC7EE276A1A
:1013F000074B93ED007AC6EE877A064BC3ED007A71
:1014000008BD00BF1C000020280000202000002094
:10141000240000208C0600202DE9F04100254DE03D
:10142000012002F071FD364C0921204602F07EF9C0
:10143000DFF8F080C8F8000040F20F11204602F0FB
:1014400075F9304F386040F21521204602F06EF9F0
:101450002D4E306040F21B31204602F067F92B4BD5
:1014600018602B4BD8ED007AF8EE677A93ED007A8E
:1014700077EE877AC3ED007A264BD7ED007AF8EE47
:10148000677A93ED007A77EE877AC3ED007A224B84
:10149000D6ED007AF8EE677A93ED007A77EE877AE8
:1014A000C3ED007A1D4B07EE900AF8EE677A93EDD4
:1014B000007A77EE877AC3ED007A01350F2DAFDD24
:1014C000134B93ED007ADFED167A27EE277A83ED42
:1014D000007A104B93ED007A27EE277A83ED007A9D
:1014E0000D4B93ED007A27EE277A83ED007A0B4BB4
:1014F00093ED007A67EE277AC3ED007ABDE8F081BC
:10150000EC020020B4060020B0060020AC0600204B
:10151000DC060020D8060020D4060020C0060020EB
:101520000000803DB80600200368B3F1A04F00D052
:10153000704710B52DED028B0446092102F0F6F834
:101540002A4B186007EE900AF8EE677A284B93ED65
:10155000007A77EEC77A9FED278A67EE887A264B66
:10156000C3ED007A40F20F11204602F0DFF8234B62
:10157000186007EE900AF8EE677A214B93ED007A37
:1015800077EEC77A67EE887A1E4BC3ED007A40F299
:101590001521204602F0CAF81B4B186007EE900A8E
:1015A000F8EE677A194B93ED007A77EEC77A67EE1B
:1015B000887A174BC3ED007A40F21B31204602F0C7
:1015C000B5F8144B186007EE900AF8EE677A124BE4
:1015D00093ED007A77EEC77A9FED107A67EE877AFF
:1015E0000F4BC3ED007ABDEC028B10BDA8060020A6
:1015F000DC060020ED32D33AE8060020A4060020E5
:10160000D8060020E4060020A0060020D406002012
:10161000E00600209C060020C00600202E33113C6E
:10162000BC06002010B504460268294B9A4204D03B
:101630002268284B9A4246D010BD274B274A126891
:101640001A60274A12685A60264A12689A60264A27
:101650001268DA60254A91691961116A5961926AC2
:101660009A61234A1268DA61224A12681A62224A8F
:1016700012685A62214A12689A62DFF890E09C462A
:10168000BCE80F00AEE80F00BCE80F00AEE80F00AA
:101690009CE807008EE807004FF0FF43AEF1200200
:1016A000D362174B1B78002BC2D1154B01221A7045
:1016B00064221449144806F085FA3022134912486E
:1016C00005F0D4FBB4E7124A136801331360B3E7A3
:1016D000000400400008004050020020E8060020FE
:1016E000E4060020E0060020140000204808002046
:1016F000C8060020C40600207C0600202408002024
:10170000E802002080020020E405002020020020E2
:10171000E40200200268044B9A4200D07047034B59
:1017200000221A70FAE700BF00380140E8020020EA
:1017300008B5054B984200D008BD0448FFF724FBCC
:10174000034B83ED000AF7E7E40500208002002048
:101750001C02002008B5054B984200D008BD642249
:101760000349184606F02EFAF8E700BFE40500200A
:101770008002002072B6FEE710B594B006AC3822A5
:101780000021204608F009F9002001900290039002
:101790000490059003F032FC012206924FF480334E
:1017A000079302230D9303210E910F922A22109288
:1017B000119312931393204602F0E6FB70B90F23A6
:1017C00001930323029303900490059004210DEBF1
:1017D000010002F091FE18B914B010BDFFF7CAFF66
:1017E000FFF7C8FF08B502F06DFBFFF7C5FF00F07B
:1017F000FFF800F04FFA00F05FF900F01BFF00F077
:10180000BFFF00F0F3FD00F06FFA00F08FFD00F075
:1018100025FE5E4D7F21284601F09EFE5C4C204651
:1018200004F02AFD0C21204605F008F92268D36A4D
:101830000A3B1364284601F0DDFEFFF7EDFD0021B1
:10184000204605F0FBF80821204605F0F7F80421B2
:10185000204605F0F3F80021204605F0A5F9042103
:10186000204605F0A1F90821204605F09DF94948D8
:1018700004F03EFD484804F03BFD07F0B3F800F0EB
:1018800013FCFFF7A5FD06F0DBFC9FED448AF1EEAB
:10189000081AB0EE481AF3EE0B0A9FED410A06F063
:1018A000E7FDF1EE081AB0EE481AF3EE0E0AB1EEBB
:1018B0000E0A06F07DFEF2EE081AB0EE481ADFEDD1
:1018C000390AB1EE0E0A06F067FEF2EE081AB0EE23
:1018D000481ADFED350AB1EE040A06F00DFEF2EE0D
:1018E000081AB0EE481ADFED310A9FED310A06F012
:1018F0000FFEF0EE081AB0EE481AF0EE000AB3EE52
:10190000040A06F0C1FD2B4B2B4A1A602B4B83EDCA
:10191000008A2B4B83ED008A2A4B83ED008A2A4BE9
:1019200083ED008A294B2A4A1A602A4B2A4A1360FF
:101930002A4A13602A4B2B4A1A602B4B83ED008AEC
:10194000012210214FF0904003F062F919E0274B7B
:1019500000221A701D4B1E4A1A600023194A136098
:10196000194A1360164A136006F06AFC06F0B0F9D3
:101970001D4B93ED000A06F0CBF900F0C1FBFFF719
:10198000A9FC1A4B1B78002BE1D1EFE7EC020020F9
:10199000D80400208C040020400400200000000037
:1019A00000004842000020426666C6406666B640B7
:1019B0003333333F30000020000030411800002056
:1019C000140000208806002084060020100000205B
:1019D000000080BF000040410C0000202C000020CF
:1019E00024080020CC7B6540200800207C020020D9
:1019F0002DE9F04188B003AD0024039404940594CC
:101A0000069407942A4BDA6C42F02002DA64DA6C0E
:101A100002F020020092009ADA6C42F00102DA64CD
:101A2000DA6C02F001020192019ADA6C42F00202D1
:101A3000DA64DB6C03F002030293029B224610215E
:101A40004FF0904003F0E4F801224FF400614FF0B2
:101A5000904003F0DDF8DFF85C8001224FF4805104
:101A6000404603F0D5F8102303930127049702267C
:101A70000596069629464FF0904002F0DFFF4FF49E
:101A8000805303930497059406962946404602F036
:101A9000D5FF4FF4006303930497059406962946F7
:101AA0004FF0904002F0CAFF08B0BDE8F08100BFDF
:101AB000001002400004004810B59AB000241794AA
:101AC000189419943C22214608A807F066FF2022AA
:101AD0002146684607F061FF44484FF0A043036089
:101AE0004FF4403343608460C46004610123436168
:101AF0000422826104774477036280F82440C46240
:101B0000046380F83840C46380F8404000F0AAFFC6
:101B1000002856D10023179317A9344802F020F962
:101B2000002851D1324B08930923099300230A93CB
:101B30007F220B9204220C920D9310928DF8443068
:101B40008DF845308DF8463084221292802213920F
:101B50008DF8503008A9254801F008FE002836D13C
:101B6000244B089340F20F13099308A91F4801F072
:101B7000FDFD00282ED1204B089340F21523099338
:101B800008A91A4801F0F2FD38BB1C4B089340F23B
:101B90001B33099308A9154801F0E8FD00BB144B5D
:101BA000009306230193002302937F2203920422D1
:101BB0000492059369460D4801F0B4F998B91AB03A
:101BC00010BDFFF7D7FDA5E7FFF7D4FDAAE7FFF7A4
:101BD000D1FDC5E7FFF7CEFDCDE7FFF7CBFDD4E79D
:101BE000FFF7C8FDDBE7FFF7C5FDE8E7EC020020E3
:101BF00002003004040060080800900C1000C010BF
:101C000010B598B0044600211391149115911691C6
:101C10001791442202A807F0C0FE2368B3F1A04F39
:101C200001D018B010BD4FF4004302934FF00053A1
:101C3000119302A802F08CFD30BB154BDA6C42F414
:101C40000052DA64DA6C02F400520092009ADA6C04
:101C500042F00102DA64DB6C03F001030193019BA3
:101C60000F231393032314930023159313A94FF009
:101C7000904002F0E3FE00221146122003F0A4FA85
:101C8000122003F0B1FACCE7FFF774FDD5E700BFEF
:101C90000010024000B583B0124B9A6C42F004026F
:101CA0009A649A6C02F004020092009A9A6C42F0D4
:101CB00001029A649B6C03F001030193019B0022D3
:101CC00011460C2003F080FA0C2003F08DFA00225C
:101CD00011460D2003F078FA0D2003F085FA03B0C9
:101CE00000BD00BF0010024008B51048104B036053
:101CF000002343608360C3600374437483741522BC
:101D00004261012282610521C161022101624262B8
:101D10008262C262026342638363C36303F0F8FAC0
:101D200000B908BDFFF726FDFBE700BF5803002000
:101D30000064004010B598B004460021139114913E
:101D4000159116911791442202A807F026FE2268E9
:101D5000194B9A4201D018B010BD4FF48053029332
:101D60004FF000730E9302A802F0F2FC08BB134B75
:101D70009A6D42F000729A659A6D02F000720092BC
:101D8000009ADA6C42F00202DA64DB6C03F00203C0
:101D90000193019B4FF44073139302231493002388
:101DA000159316930923179313A9054802F046FECD
:101DB000D1E7FFF7DFFCDAE70064004000100240E3
:101DC000000400480378427843EA022000B27047DA
:101DD0000170C1F30721417070470170C1F30723FF
:101DE0004370C1F307438370090EC1707047F0EE72
:101DF000407AB4EEE00AF1EE10FA09DCB1EE600AC6
:101E0000B4EEE70AF1EE10FA04DCB0EE670A7047B0
:101E1000B0EE600A70470000B0F5007F00D0704758
:101E200010B5081DFFF7CEFF0446FEF79DFF234BBC
:101E3000186041F2E1039C421FD06FF487539C422B
:101E400019D040F629139C421FD01D4B9C421CD038
:101E500007EE904AF8EEE77AF2EE080A9FED190ACB
:101E600027EE800AFFF7C3FF174B83ED000A174BDD
:101E7000174A1A6010BD174A00E0174A174B1A603C
:101E8000124B4FF082421A60F4E7104B93ED007A48
:101E9000F2EE027AB4EE677AF1EE10FA06D1104B48
:101EA00000221A60094B0F4A1A60E3E70E4B00222A
:101EB0001A60FEF759FF0D4B1860F0E7C8030020C9
:101EC000D7F6FFFF6F12833AD803002010000020DE
:101ED0000000E0408FC2F5BD8FC2F53DD403002065
:101EE0001800002000001041D0030020CC03002087
:101EF00000B58DB040210C4803F079FC88B16B46E9
:101F000002AA4021084803F0A1FB50B9039B002B13
:101F1000F0D1059B082BEDD169460298FFF77CFFB5
:101F2000E8E70DB000BD00BF5803002010B58CB02D
:101F3000044601A9194803F035FC30B9069B23B9C2
:101F4000174B9B6913F0010F05D0164B1B68E31A62
:101F5000154A934201D80CB010BD124B1C60134BB4
:101F6000DFED137AC3ED007A124B134A1A6005F0C5
:101F70007BFEB0EE401ADFED0E0AB0EE600A05F00F
:101F800043FF064803F0F6FA044803F0DDFA0028A0
:101F9000E1D10A4B1C600A4B1C60DCE758030020AF
:101FA00000640040C00300209F860100D003002091
:101FB0000000000010000020000080BFC8030020C7
:101FC000C40300200000000030B52DED028B8DB061
:101FD00000230193029306F0F3FC2D4CD4ED007A1C
:101FE00020EE278A06F0B2FDD4ED007A20EE270A13
:101FF000DFED287A28EE278ABDEEC88ADFED267A43
:1020000060EE277A17EE900AFEF7AEFA1EA3D3E928
:102010000023FEF72BFC0022204BFEF7FDFAFEF713
:10202000ABFD04B21E4B1B68B3F5803F21D29BB2BF
:102030001D4618EE101A01A8FFF7CFFE214602A890
:10204000FFF7C6FE29B20DF10A00FFF7C1FE2422F8
:10205000002103A807F0A1FC40F207130393082313
:102060000693104803F0D1FB38B90DB0BDEC028BDC
:1020700030BD4FF6FF731D46DBE701AA03A90948EF
:1020800003F0BCFAF1E700BF4AD8124DFB2119401A
:102090003400002000007A44000070420000244018
:1020A0009C0600205803002000B587B06946002335
:1020B00000930193029303930493059302230293E5
:1020C000012303930A4803F00DFA08B107B000BDDD
:1020D000074803F039FA0028F8D1064B01221A709C
:1020E000FEF742FE044B1860044B1860EEE700BF99
:1020F00058030020BC030020C8030020C4030020B4
:1021000038B52DED028B794B1B7813B9BDEC028BE2
:1021100038BDFFF7EDFEFEF727FE04460546FFF744
:1021200005FF734BD3ED007AB1EE0C7AF4EE477AEB
:10213000F1EE10FA26D16F4B1B68E31A6E4A9342F8
:1021400010D96E4B00221A60694B6D4A1A606D4BB4
:102150001B68EB1AB3F5FA6FD8D36A4B1D60FFF713
:1021600033FFD3E7654BD3ED007AB0EE678A05F015
:102170007BFDB0EE401ADFED640AB0EE480A05F0D0
:1021800043FEE4E7B2EE007AF4EE477AF1EE10FA9D
:102190001BD1584B1B68E31A574A93420DD9544B35
:1021A000574A1A6005F060FDB0EE401A9FED560ADE
:1021B000F0EE400A05F028FEC9E7F1EE080A534B9D
:1021C00093ED000A06F0CCF8C1E7B2EE027AF4EE25
:1021D000477AF1EE10FABAD1464B1B68E31A464A29
:1021E000934212D94A4BDFED487AC3ED007A404B57
:1021F000434A1A6005F038FDB0EE401ADFED420A9E
:10220000B0EE600A05F000FEA1E706F0D9FB414BF5
:10221000D3ED007A20EE270AB0EEC07ADFED3E7AE9
:10222000B4EEE77AF1EE10FA16DD394B00221A60AF
:102230003A4B1C60B5EEC00AF1EE10FA09DD9FEDD5
:10224000380A324B83ED000AF1EE080A06F088F8EE
:102250007DE79FED310AF4E7304B1B68E31A07EE88
:10226000903AF8EE677A9FED2F7A67EE877AF5EE6F
:10227000C07AF1EE10FA09D9B6EE007AF4EEC77A18
:10228000F1EE10FA04DDDFED287A01E0DFED267AC9
:10229000224B1D609FED1C7A37EE408AB0EE080A93
:1022A00028EE000A20EE270A194CD4ED007A30EE11
:1022B000270A84ED000AF2EE080AFFF798FD84ED84
:1022C000000AF2EE080A68EE207A30EE270AFFF7DD
:1022D0008EFDB0EE408A05F0C7FCB0EE401ADFED8F
:1022E0000A0AB0EE480A05F08FFD30E7BC03002073
:1022F00010000020C8030020A0860100D8030020A1
:10230000000080BFC403002000000000D4030020B0
:10231000D0030020340000208FC2F53DCC03002004
:102320008FC2F5BDBD3786356F12833A08B51148A7
:10233000114B03604FF482734360002383604FF4BA
:102340007062C26002220261012242614FF4007297
:1023500082611822C2610362436283620722C26201
:102360000363436303F065FB00B908BDFFF702FA9E
:10237000FBE700BFDC0300200030014000B589B05E
:102380000023039304930593069307930268164B67
:102390009A4201D009B000BD03F560431A6E42F4C1
:1023A00080521A661A6E02F480520192019ADA6C17
:1023B00042F00102DA64DB6C03F001030293029B3A
:1023C000E0230393022304930523079303A94FF00B
:1023D000904002F033FB00221146232002F0F4FE6D
:1023E000232002F001FFD5E70030014000B589B09D
:1023F0000023049305930693079301930293039399
:102400001448154A026044F29F124260836013220E
:10241000C2600361836104F00FF988B94FF48053FF
:10242000049304A90B4804F05DFA60B900230193FA
:10243000039301A9074804F02DFC38B909B000BD89
:10244000FFF798F9EAE7FFF795F9EFE7FFF792F959
:10245000F4E700BF8C0400200004004000B589B000
:102460000023049305930693079301930293039328
:102470001448154A0260A822426083604FF6FF723A
:10248000C2600361836104F0D7F888B94FF48053C8
:10249000049304A90B4804F025FA60B900230193C2
:1024A000039301A9074804F0F5FB38B909B000BD52
:1024B000FFF760F9EAE7FFF75DF9EFE7FFF75AF991
:1024C000F4E700BF400400200008004000B585B0DC
:1024D00003682E4A934207D02D4A93422FD02D4AAB
:1024E00093423FD005B000BD2B4B1A6E42F4006200
:1024F0001A661B6E03F400630193019B00221146D0
:10250000182002F061FE182002F06EFE0022114633
:10251000192002F059FE192002F066FE0022114631
:102520001A2002F051FE1A2002F05EFE002211462F
:102530001B2002F049FE1B2002F056FED2E7164B8C
:102540009A6D42F002029A659B6D03F002030293BA
:10255000029B002211461D2002F036FE1D2002F0D3
:1025600043FEBFE70C4B9A6D42F004029A659B6DE7
:1025700003F004030393039B002211461E2002F084
:1025800023FE1E2002F030FEACE700BF002C01400D
:1025900000040040000800400010024070B588B000
:1025A00000230393049305930693079302681F4B3C
:1025B0009A4201D008B070BD03F56443DA6C42F072
:1025C0000202DA64DA6C02F002020192019ADA6C19
:1025D00042F00102DA64DB6C03F001030293029B18
:1025E0004FF4C0430393022504950626079603A9DA
:1025F0000F4802F023FA4FF400430393049500249C
:10260000059406940423079303A9094802F016FAD7
:102610004FF4E0630393049505940694079603A989
:102620004FF0904002F00AFAC4E700BF002C0140CE
:102630000004004810B59CB00024189419941A9412
:102640001B941594169417940E940F94109411944F
:102650001294139414943422214601A807F09DF992
:102660004548464B036044602023836042F2CF0319
:10267000C36004614461846103F0DEFF00285FD120
:102680004FF48053189318A93B4804F02BF9002805
:1026900059D1394804F000F8002857D10023159388
:1026A0001693179315A9344804F0F4FA002850D172
:1026B00060230E9300220F921092119212921392A5
:1026C00014920EA92C4804F061F8002844D1042289
:1026D0000EA9294804F05AF8002840D108220EA972
:1026E000254804F053F800283CD170230E9342F2A1
:1026F000BC030F930C220EA91F4804F047F80028D2
:1027000033D100230193029303930A2204924FF4DE
:10271000805205924FF40052069207930893099352
:102720004FF000720A920B930C930D9301A912487B
:1027300004F0FCFAE0B91048FFF730FF1CB010BD00
:10274000FFF718F89CE7FFF715F8A2E7FFF712F874
:10275000A4E7FFF70FF8ABE7FFF70CF8B7E7FFF7D1
:1027600009F8BBE7FFF706F8BFE7FFF703F8C8E78C
:10277000FFF700F8DFE700BFD8040020002C01407D
:1027800008B51748174B03604FF4E133436000234B
:102790008360C36003610C2242618361C361036291
:1027A0004362836205F0ECF870B900210C4805F033
:1027B000BFF960B900210A4805F0DFF950B90848AF
:1027C00005F097F948B908BDFEF7D4FFEDE7FEF72D
:1027D000D1FFEFE7FEF7CEFFF1E7FEF7CBFFF2E721
:1027E000E40500200038014030B599B004460021CE
:1027F00013911491159116911791442202A807F094
:10280000CCF82268334B9A4201D019B030BD012375
:10281000029302A801F09CFF002851D12E4B1A6EA2
:1028200042F480421A661A6E02F480420092009AC4
:10283000DA6C42F00202DA64DB6C03F0020301930B
:10284000019BC0231393022314930025159516951D
:102850000723179313A9214802F0F0F82048214BD1
:102860000360182343608560C56080230361456170
:102870008561C561056202F02BFA20BB184BC4F8D4
:1028800080309C621848194B036019234360102361
:1028900083600023C3608022026143618361C3615E
:1028A000036202F015FA88B90F4BE3679C620022BD
:1028B0001146252002F088FC252002F095FCA4E7B3
:1028C000FEF758FFAAE7FEF755FFD7E7FEF752FFDE
:1028D000EAE700BF00380140001002400004004851
:1028E0008405002030000240240500201C00024026
:1028F000FEE7FEE7FEE7FEE7FEE77047704770473A
:1029000008B501F0EFFA08BD08B5024802F009FB6E
:1029100008BD00BF2405002008B5024802F001FBF5
:1029200008BD00BF8405002008B5024800F0B0F9DA
:1029300008BD00BFEC02002008B5024803F01FFDEF
:1029400008BD00BFD804002008B5024803F017FDF9
:1029500008BD00BFD804002008B5024803F00FFDF1
:1029600008BD00BFD804002008B5024803F007FDE9
:1029700008BD00BFD804002008B5024803F0FFFCE2
:1029800008BD00BF8C04002008B5024803F0F7FC26
:1029900008BD00BF4004002008B5024803F046FA15
:1029A00008BD00BFDC03002008B5024804F020FB8E
:1029B00008BD00BFE405002000B583B00B4B1A6EC4
:1029C00042F001021A661A6E02F001020092009AA9
:1029D0009A6D42F080529A659B6D03F0805301938B
:1029E000019B02F091FB03B000BD00BF001002404C
:1029F000034AD2F8883043F47003C2F88830704735
:102A000000ED00E000B500F1300E0B0A9B0003F072
:102A10000C035EF8030001F01F014FF01F0C0CFACD
:102A200001FC20EA0C0CC2F384628A404CEA0202E8
:102A30004EF8032000BD00B500F1140E4B0E9B00B4
:102A400003F004035EF80300C1F304514FF0070CD8
:102A50000CFA01FC20EA0C0C8A404CEA02024EF807
:102A6000032000BD30B583B000230193002800F09F
:102A7000FF800446C36D13B323689A6812F0005FA9
:102A800005D09A6822F0204222F03F029A60226824
:102A9000936813F0805F1FD1936823F0104323F0F5
:102AA0003F0343F080539360724B1B689B09724A4B
:102AB000A2FB03239B0901335B00019309E0FFF7AD
:102AC0009FF80023236684F85830D5E7019B013B2B
:102AD0000193019B002BF9D12268936813F0805F6A
:102AE00040F09280E36D43F01003E365236E43F002
:102AF000010323660120936813F0040300D001232F
:102B0000E16D11F0100F40F0AC80002B40F0A98077
:102B1000E36D23F4817343F00203E365936813F0DC
:102B2000010F11D14FF0A0439B6803F00103534AFA
:102B3000926812F0010F07D133B9636850498A686F
:102B400022F47C1213438B60627FE36B43EA4233CF
:102B5000E2681343A268134394F8242043EA024333
:102B6000012A53D0E26A22B102F47872216B0A433F
:102B700013432168D1F80CC0424A0CEA02021A43FE
:102B8000CA602268136923F04063616B0B431361D1
:102B90002268936813F0080300D001232BBB237F26
:102BA00094F83810490041EA8331D36823F4804314
:102BB00023F002030B43D360236963B322681369D4
:102BC00043F4803313612268D2F8C0306FF30D03F1
:102BD00021690B43C2F8C03094F84030012B27D054
:102BE0002268136923F0010313616369012B2FD05D
:102BF0002268136B23F00F031363E36D23F00303C9
:102C000043F00103E36531E0002074E7A26A013A72
:102C100043EA4243A6E72268136923F48033136131
:102C20002268D2F8C0306FF30D03C2F8C030D3E78A
:102C300021680B696FF38A03626CA56C2A43E56C0B
:102C40002A43256D2A43134343F001030B61CCE76C
:102C500021680B6B23F00F03226A013A13430B63C5
:102C6000CBE7E36D43F01003E365012003B030BD13
:102C70000120FBE700000020632D3E05000100500D
:102C8000000300500740F0FF704770477047000096
:102C9000F8B5044603681F685D68954B9E6806F0AA
:102CA0001F0617F0020F10D015F0020F0DD0C36DE4
:102CB00013F0100F03D1C36D43F40063C3652046C6
:102CC00000F053FD236802221A6017F0040F02D0AF
:102CD00015F0040F05D117F0080F4AD015F0080FB2
:102CE00047D0E36D13F0100F03D1E36D43F400738D
:102CF000E3652368DA6812F4406F34D17D4A934269
:102D000009D01A46934209D046B1052E06D0092EA5
:102D100004D0D26803E04FF0A042F3E7DA6812F47F
:102D2000005F20D11A6812F0080F1CD09A6812F0C8
:102D3000040F10D15A6822F00C025A60E36D23F49C
:102D40008073E365E36D13F4805F0CD1E36D43F0B2
:102D50000103E36507E0E36D43F01003E365236ED1
:102D600043F0010323662046FFF78EFF23680C2201
:102D70001A6017F0200F02D015F0200F05D117F0C0
:102D8000400F5CD015F0400F59D0E36D13F0100FD9
:102D900003D1E36D43F40053E3652368DA6C12F466
:102DA000C07F12D10121DA6812F4406F0FD10120E7
:102DB000504A93420DD01A4693420DD066B1062E6A
:102DC0000AD0072E08D0D26807E00021EBE70020E8
:102DD000EEE74FF0A042EFE7DA6851B312F0007F60
:102DE00003D030B312F4005F23D1196811F0400F03
:102DF0001FD012F4001F1CD19A6812F0080F10D1D6
:102E00005A6822F060025A60E36D23F48053E36550
:102E1000E36D13F4807F0CD1E36D43F00103E365B0
:102E200007E0E36D43F01003E365236E43F0010315
:102E300023662046FEF778FB236860221A6017F0AD
:102E4000800F02D015F0800F2FD117F4807F02D0B1
:102E500015F4807F34D117F4007F02D015F4007F81
:102E60003AD117F0100F19D015F0100F16D0E36BF0
:102E700033B1002E40D01E4B9B6813F4604F0AD034
:102E8000E36D43F48063E365236E43F0020323663E
:102E90002046FFF7FBFE236810221A6017F4806FAC
:102EA00002D015F4806F2DD1F8BDE36D43F480336B
:102EB000E3652046FFF7E9FE236880221A60C4E735
:102EC000E36D43F40033E365204600F04CFC2368D7
:102ED0004FF480721A60BEE7E36D43F48023E3652C
:102EE000204600F041FC23684FF400721A60B8E7F6
:102EF00000030050000100502368DB6813F0010F4D
:102F0000C9D0BDE7E36D43F48043E365236E43F02E
:102F10000803236623684FF480621A60204600F09D
:102F200021FCC1E7F0B583B00023019390F858303D
:102F3000012B00F0368204460D46012380F85830FC
:102F40000068836813F0040F09D0E36D43F0200399
:102F5000E3650120002384F8583003B0F0BD0A680F
:102F60004968FFF74FFD2068836813F0040300D021
:102F70000123826812F00802174601D00122174689
:102F8000002B40D1002F3ED1AA68B2F1004F72D081
:102F90002968FFF750FD2268536923F0004353610D
:102FA00069692268D368C3F3C1035B00994028694B
:102FB00004286ED0603252F820C0A04B0CEA030304
:102FC0002E6806F0F84C41EA0C010B4343F0004335
:102FD00042F8203023682869AA69603353F820102A
:102FE00021F080710A4343F82020236829692A7F51
:102FF000012A4AD0603353F8212022F0007238466B
:10300000104343F821002268936813F0010F17D191
:103010002B68E868D2F8B010C3F3120C21EA0C0157
:1030200000F0180C864820FA0CF00340C3F312039A
:103030000B43C2F8B030EA68824B9A4200F09080AD
:103040002B68814A134200F0A481804A926802F002
:10305000E0717F48834200F053817E48834200F054
:103060004F817D48834200F071817C48834200F0AB
:103070007F8100206EE73A462968FFF7DCFC226872
:10308000536943F0004353618AE74FF000721746DB
:10309000B0E7136E116EC1F384612B68C3F31200A5
:1030A00078BBC3F38463994233D021684B6E4A6E78
:1030B000C2F384622B68C3F3120078BBC3F384634A
:1030C0009A4233D021688B6E8A6EC2F384622B6879
:1030D000C3F3120078BBC3F384639A4233D02168F0
:1030E000CB6ECA6EC2F384622B68C3F3120078BB46
:1030F000C3F384639A4286D1CB6E23F00043CB6640
:1031000081E793FAA3F313B1B3FA83F3CBE7202358
:10311000C9E7136E23F000431366C6E793FAA3F3DF
:1031200013B1B3FA83F3CBE72023C9E74B6E23F047
:1031300000434B66C6E793FAA3F313B1B3FA83F3E4
:10314000CBE72023C9E78B6E23F000438B66C6E7ED
:1031500093FAA3F313B1B3FA83F3CBE72023C9E7C0
:1031600020682B68C3F3120CBCF1000F2DD19A0E0E
:10317000013202F01F02092A8CBF00220122002A1C
:103180006ED0BCF1000F2FD1990E0131890601F0EC
:10319000F841BCF1000F33D14FEA936E0EF1010EEE
:1031A0000EF01F0E012202FA0EF21143BCF1000FC5
:1031B00035D19B0E013303F01F0303EB43031B05C3
:1031C0001943AA68FFF737FC3AE793FAA3F24AB12A
:1031D000B2FA82F2013202F01F02092A8CBF0022E9
:1031E0000122CCE72022F5E793FAA3F131B1B1FA3D
:1031F00081F10131890601F0F841CAE72021F8E7A1
:1032000093FAA3F24AB1B2FA82F2013202F01F023B
:103210004FF0010E0EFA02F2C7E72022F5E793FA0B
:10322000A3F343B1B3FA83F3013303F01F0303EBBA
:1032300043031B05C4E72023F6E700BF00F0FF03AC
:10324000FFFF070000007F400000088000030050DF
:10325000000021C31000C090000052C7000084CBC2
:10326000BCF1000F20D1990E0131890601F0F8411F
:10327000BCF1000F24D14FEA936E0EF1010E0EF057
:103280001F0E012202FA0EF21143BCF1000F26D1EB
:103290009B0E013303F01F030A3B03EB43031B05A3
:1032A00043F0007319438CE793FAA3F131B1B1FAFB
:1032B00081F10131890601F0F841D9E72021F8E7D1
:1032C00093FAA3F24AB1B2FA82F2013202F01F027B
:1032D0004FF0010E0EFA02F2D6E72022F5E793FA3C
:1032E000A3F35BB1B3FA83F3013303F01F030A3B8B
:1032F00003EB43031B0543F00073D3E72023F3E7FD
:1033000012F4000F7FF4ADAE2368B3F1A04F01D0EB
:1033100000201FE641F40001234A936823F0E07384
:1033200019439160214B1B689B09214AA2FB03238F
:103330009B09013303EB43039B000193019B1BB1EA
:10334000019B013B0193F9E7184603E612F0807FE9
:103350007FF48BAE2268174B9A421CD041F08071EB
:10336000114A936823F0E073194391600020F1E55E
:1033700012F4800F11D122680E4B9A420FD041F403
:10338000800309498A6822F0E07213438B600020B1
:10339000E0E50020DEE50020DCE50020DAE50020A5
:1033A000D8E50220D9E500BF00030050000000204E
:1033B000632D3E050001005030B583B0002301931A
:1033C00003689A6812F0010F58D1044699682D4A93
:1033D000114219D19A6822F0004222F03F0242F0D5
:1033E00001029A60284B9B6813F4000F1CD0274BF6
:1033F0001B689B09264AA2FB03239B09013303EBAD
:1034000043039B0001930CE0C36D43F01003C365BD
:10341000036E43F001030366012030E0019B013B92
:103420000193019B002BF9D100F068FD054623684C
:103430001A6812F0010F1FD19A6812F0010F07D11C
:103440009A6822F0004222F03F0242F001029A60A4
:1034500000F054FD431B022BE9D923681B6813F0CD
:10346000010FE4D1E36D43F01003E365236E43F0F5
:1034700001032366012002E0002000E0002003B0E9
:1034800030BD00BF3F00008000030050000000205E
:10349000632D3E0538B504460268936813F00203B5
:1034A00000D00123916811F0010F39D0002B39D1E0
:1034B000936803F00D03012B09D0E36D43F0100373
:1034C000E365236E43F001032366012029E093683E
:1034D00023F0004323F03F0343F00203936023688B
:1034E00003221A6000F00AFD054623689B6813F06A
:1034F000010F13D000F002FD401B0228F5D923680C
:103500009B6813F0010FF0D0E36D43F01003E36507
:10351000236E43F001032366012002E0002000E057
:10352000002038BD0020FCE700B500F1140E4B0E62
:103530009B0003F004035EF80300C1F304514FF055
:10354000070C0CFA01FC20EA0C0C8A404CEA02023F
:103550004EF8032000BD000030B583B00023019376
:1035600090F85830012B41D004460D46012380F8D5
:103570005830FFF78FFF80BBE36D23F4885323F0AF
:10358000020343F00203E36521688B6823F04043A4
:1035900023F03F0305F08042134343F000438B6068
:1035A00023689B68002B06DBE36D23F0030343F0E5
:1035B0000103E36515E0019B01330193019A0C4B74
:1035C0009A42EDD9E36D23F0120343F01003E36553
:1035D000002384F85830012006E0E36D43F0100327
:1035E000E365002384F8583003B030BD0220FBE7C8
:1035F00001DE040038B54B4B9B6803F01F031D46EA
:1036000003689A6812F0080F40F087800446DA6871
:10361000DB6C13F4C07F01D1002A53DA94F85830E0
:10362000012B7CD0012384F858302046FFF7C4FEDC
:1036300000286ED1E36D13F4807F49D0236E23F010
:1036400008032366E36D23F4405323F0010343F49E
:103650008053E3652368344A93423CD01A46934230
:1036600000D01DB9E26D22F48012E26560221A607A
:10367000002384F858302368DA6812F4001F03D05E
:103680005A6842F480625A60A369082B26D02268E7
:10369000536823F0400353602268536843F02003CB
:1036A00053602368204A934223D01A46934223D082
:1036B00015B3062D20D0072D1ED0E36D43F48013E3
:1036C000E3652BE0C36D43F02003C365012025E0D3
:1036D00000232366B6E74FF0A042C0E72268536894
:1036E00023F0200353602268536843F04003536083
:1036F000D7E74FF0A042D9E7DA6812F0007F0DD18A
:103700009A6822F0004222F03F0242F008029A60DA
:1037100004E0002384F8583000E0022038BD022085
:10372000FCE700BF000300500001005040F21523E9
:1037300099420FD040F21B33994207D040F20F1349
:1037400099420BD00368D3F8800070470368D3F820
:103750008C0070470368D3F8880070470368D3F87B
:10376000840070477047704770477047F0B583B06A
:103770000023019390F85830012B00F0E5820446B5
:103780000D46012380F858304369A3B10B6A012B21
:1037900011D0826E002A40F0BD80836642668B6A3B
:1037A000002B00F0B4800A6A013A03F07C031A434C
:1037B000CB6A1A43AFE06B68092B00F0888023685E
:1037C0009A6812F0080F10D195F82520002A40F0D1
:1037D000C080DA6822F4401295F8260095F824108B
:1037E000090541EA40510A43DA602268936813F000
:1037F000040300D00123916811F008010F4601D0A5
:1038000001210F46002B40F04781002F40F08081BE
:10381000AB6A1BB1EB6A002B40F0AB8095F825300A
:10382000012B00F09F80D36823F00073D360002346
:103830001E4695F83030012B00F0AC8022681369E9
:1038400023F002031361AA68B2F1004F00F0AE80CA
:1038500029682068FFF768FE2268536923F0004357
:1038600053616A692168CB68C3F3C1035B009A4066
:10387000D5F810C0BCF1040F00F0A780603151F8FA
:103880002C00A54B0340286800F0F8400243134386
:1038900043F0004341F82C3023682869AA6960335B
:1038A00053F8201021F080710A4343F82020236848
:1038B00028692A7F012A00F08480603353F8202091
:1038C00022F000723946114343F82010E6E0AA6A5C
:1038D000BAB12B689B0E5B0203F4785302F07C02B2
:1038E0001343EA6A13432168CA6C22F07B4222F434
:1038F0006F0222F43F4222F0FF021A43CA64636659
:103900005DE72B689B0E5B0203F47853EBE70A6AD2
:10391000013A00E000222B68C3F38463696801F078
:103920001F018B401343A16E0139A166626E1343E0
:10393000636600297FF443AF2168CA6C22F07B42A2
:1039400022F46F0222F43F4222F0FF021343CB64C1
:1039500035E7DA6822F4401295F8261042EA41521F
:10396000DA6042E7D36843F00073D36000231E4659
:103970005FE795F825301E46012B06D0D36823F06B
:103980000073D36000231E4653E7E36D43F020032A
:10399000E3654EE721680B6923F4FF736A6BA86B3C
:1039A0000243134343F002030B614CE700222968F2
:1039B0002068FFF7B9FD2268536943F00043536163
:1039C0004FE74FF00072174677E70B6E0A6EC2F3AF
:1039D00084622B68C3F3120078BBC3F384639A42FA
:1039E00033D021684B6E4A6EC2F384622B68C3F3F6
:1039F000120078BBC3F384639A4233D021688B6E84
:103A00008A6EC2F384622B68C3F3120078BBC3F3DF
:103A100084639A4233D02168CB6ECA6EC2F384624B
:103A20002B68C3F3120078BBC3F384639A4235D189
:103A3000CB6E23F00043CB6630E093FAA3F313B1CF
:103A4000B3FA83F3CBE72023C9E70B6E23F00043DF
:103A50000B66C6E793FAA3F313B1B3FA83F3CBE78C
:103A60002023C9E74B6E23F000434B66C6E793FA69
:103A7000A3F313B1B3FA83F3CBE72023C9E78B6E2B
:103A800023F000438B66C6E793FAA3F313B1B3FAAE
:103A900083F3CBE72023C9E700231E4621688B6808
:103AA00013F0010F16D12B68E868D1F8B020C3F3EA
:103AB000120C22EA0C0200F0180C184820FA0CF044
:103AC0000340C3F312031343C1F8B030EA68144B48
:103AD0009A4233D02B68134A134213D0124A926889
:103AE00002F0E0711148834200F0E5801048834203
:103AF00000F0E1800F48834200F002810E488342CB
:103B000000F01081002384F85830304603B0F0BD37
:103B100000231E46C2E700BF00F0FF03FFFF0700BF
:103B200000007F400000088000030050000021C317
:103B30001000C090000052C7000084CB20682B68A2
:103B4000C3F3120CBCF1000F2DD19A0E013202F01A
:103B50001F02092A8CBF00220122002A5BD0BCF17F
:103B6000000F2FD1990E0131890601F0F841BCF107
:103B7000000F33D14FEA936E0EF1010E0EF01F0EBF
:103B8000012202FA0EF21143BCF1000F35D19B0E57
:103B9000013303F01F0303EB43031B051943AA681A
:103BA000FFF7C2FC96E793FAA3F24AB1B2FA82F2A7
:103BB000013202F01F02092A8CBF00220122CCE749
:103BC0002022F5E793FAA3F131B1B1FA81F1013185
:103BD000890601F0F841CAE72021F8E793FAA3F239
:103BE0004AB1B2FA82F2013202F01F024FF0010E26
:103BF0000EFA02F2C7E72022F5E793FAA3F343B1E6
:103C0000B3FA83F3013303F01F0303EB43031B05F4
:103C1000C4E72023F6E7BCF1000F20D1990E013153
:103C2000890601F0F841BCF1000F24D14FEA936EF0
:103C30000EF1010E0EF01F0E012202FA0EF21143D8
:103C4000BCF1000F26D19B0E013303F01F030A3B8A
:103C500003EB43031B0543F0007319439FE793FAFB
:103C6000A3F131B1B1FA81F10131890601F0F841D6
:103C7000D9E72021F8E793FAA3F24AB1B2FA82F227
:103C8000013202F01F024FF0010E0EFA02F2D6E7E7
:103C90002022F5E793FAA3F35BB1B3FA83F3013380
:103CA00003F01F030A3B03EB43031B0543F00073C0
:103CB000D3E72023F3E712F4000F7FF41BAF236850
:103CC000B3F1A04F7FF41EAF41F40001204A936886
:103CD00023F0E073194391601E4B1B689B091E4A39
:103CE000A2FB03239B0903EB43039B0018330193BF
:103CF00002E0019B013B0193019B002BF9D101E7FD
:103D000012F0807F7FF4FAAE2268144B9A423FF49F
:103D1000F9AE41F080710E4A936823F0E0731943C5
:103D20009160EFE612F4800F7FF4ECAE22680B4B4B
:103D30009A423FF4E7AE41F48001054A936823F0CC
:103D4000E07319439160DDE602231E46DDE600BF05
:103D50000003005000000020632D3E0500010050CC
:103D600090F85820012A7FD000B59DB0034601226B
:103D700080F858200022189219920068B0F1A04FE4
:103D80003AD000220192019A002A38D0926812F0AB
:103D9000040200D00122806810F0040F52D1002AE2
:103DA00050D10A68002A33D0DFF8C4C0DCF80820FC
:103DB00022F46042486893F838E040EA4E3002430B
:103DC000CCF808204FF0A042926802F00102274888
:103DD000806810F0010F3FD1002A3FD1DCF80820A5
:103DE00022F4716222F00F020868896801430A43D5
:103DF000CCF8082000202AE01C4A0192C3E7DA6DC3
:103E000042F02002DA65002283F85820012021E0E8
:103E100017498A6822F460428A604FF0A042926893
:103E200002F00102A1F50071896811F0010F17D1AC
:103E3000C2B90F498A6822F4716222F00F028A60C7
:103E4000002004E0DA6D42F02002DA650120002251
:103E500083F858201DB000BD0020F8E70020F6E7E9
:103E60000020F4E70020F2E7022070470001005034
:103E700000030050104B1B680BB90120704710B5B0
:103E800004460E4A10684FF47A72B2FBF3F3B0FBAB
:103E9000F3F001F0ADF968B90F2C01D901200AE067
:103EA000024621464FF0FF3001F08EF9044B1C60B2
:103EB000002000E0012010BD0400002000000020D0
:103EC0000800002010B5032001F06CF90F20FFF767
:103ED000D1FF18B101231C46204610BD0446FEF751
:103EE0006BFDF9E7034A1368034909680B44136043
:103EF000704700BF7806002004000020014B1868BE
:103F0000704700BF7806002038B50446FFF7F6FF7B
:103F10000546B4F1FF3F02D0044B1B681C44FFF779
:103F2000EDFF401BA042FAD338BD00BF04000020C3
:103F3000124BDA6802F00302DB68C3F303130133A8
:103F4000032A11D00E48B0FBF3F00C4BDB68C3F32F
:103F5000062303FB00F0094BDB68C3F34163013325
:103F60005B00B0FBF3F070470648B0FBF3F0034B87
:103F7000DB68C3F3062303FB00F0ECE7001002400C
:103F80000024F40000127A00002800F0518270B57D
:103F900082B00446036813F0010F37D0A54A936836
:103FA00003F00C03D26802F003020C2B23D0082B81
:103FB00023D06368B3F5803F4ED0B3F5A02F51D026
:103FC0009C4B1A6822F480321A601A6822F480220C
:103FD0001A606368002B52D0FFF790FF0546954B9F
:103FE0001B6813F4003F11D1FFF788FF401B6428C2
:103FF000F5D9032025E2032AD9D18E4B1B6813F48F
:10400000003F03D06368002B00F01482236813F094
:10401000020F5DD0874A936803F00C03D26802F068
:1040200003020C2B3AD0042B3AD0E368002B75D056
:10403000804A136843F480731360FFF75FFF0546FF
:104040007C4B1B6813F4806F5FD1FFF757FF401B59
:104050000228F5D90320F4E1764A136843F480334B
:104060001360B6E703F18043A3F53C331A6842F4CA
:1040700080221A601A6842F480321A60A9E7FFF7BA
:104080003DFF05466B4B1B6813F4003FBED0FFF7A6
:1040900035FF401B6428F5D90320D2E1022AC2D1A2
:1040A000644B1B6813F4806F03D0E368002B00F0AF
:1040B000C381604A536823F0FE43216943EA0163E8
:1040C00053605D4B1868FFF7D5FE002840F0B681BD
:1040D000236813F0080F4CD063699BB3554AD2F89C
:1040E000943043F00103C2F89430FFF707FF054610
:1040F000504BD3F8943013F0020F3AD1FFF7FEFE85
:10410000401B0228F4D903209BE14A4A536823F05C
:10411000FE43216943EA01635360D9E7454A1368C6
:1041200023F480731360FFF7E9FE0546414B1B68DB
:1041300013F4806FCCD0FFF7E1FE401B0228F5D9C5
:1041400003207EE13B4AD2F8943023F00103C2F809
:104150009430FFF7D3FE0546364BD3F8943013F076
:10416000020F06D0FFF7CAFE401B0228F4D9032035
:1041700067E1236813F0040F00F083802D4B9B6DE3
:1041800013F0805F37D12B4B9A6D42F080529A65C5
:104190009B6D03F080530193019B01231E46274B27
:1041A0001B6813F4807F29D0A368012B3AD0052B1C
:1041B00046D0204BD3F8902022F00102C3F8902083
:1041C000D3F8902022F00402C3F89020A368002BBB
:1041D00044D0FFF793FE0546164BD3F8903013F00A
:1041E000020F4DD1FFF78AFE401B41F288339842FF
:1041F000F2D9032025E100231E46D0E70F4A1368B9
:1042000043F480731360FFF779FE05460B4B1B6880
:1042100013F4807FC8D1FFF771FE401B0228F5D947
:1042200003200EE1034AD2F8903043F00103C2F8B4
:104230009030CBE7001002400800002000700040E2
:10424000884BD3F8902042F00402C3F89020D3F8B2
:10425000902042F00102C3F89020B7E7FFF74EFE2E
:104260000546804BD3F8903013F0020F08D0FFF7CB
:1042700045FE401B41F288339842F2D90320E0E02A
:10428000E6B9236813F0200F35D0A369E3B1754A6E
:10429000D2F8983043F00103C2F89830FFF72EFEB1
:1042A0000546704BD3F8983013F0020F23D1FFF777
:1042B00025FE401B0228F4D90320C2E0694A936D11
:1042C00023F080539365DCE7664AD2F8983023F0F8
:1042D0000103C2F89830FFF711FE0546614BD3F891
:1042E000983013F0020F06D0FFF708FE401B02289B
:1042F000F4D90320A5E0E369002B00F0A180594A1E
:10430000926802F00C020C2A64D0022B13D0554A9A
:10431000136823F080731360FFF7F0FD0446514BE0
:104320001B6813F0007F4ED0FFF7E8FD001B02284A
:10433000F5D9032085E04B4A136823F0807313609E
:10434000FFF7DCFD0546474B1B6813F0007F06D0E6
:10435000FFF7D4FD401B0228F5D9032071E0414A44
:10436000D36841491940236A606A013843EA00135F
:10437000A06A43EA0023206B4008013843EA405317
:10438000606B4008013843EA4063E06A43EAC06377
:104390001943D160136843F080731360D36843F00E
:1043A0008073D360FFF7AAFD04462E4B1B6813F001
:1043B000007F06D1FFF7A2FD001B0228F5D90320DC
:1043C0003FE000203DE0274AD168284B0B40D360F6
:1043D000002036E0012B36D0224BDB6803F00301CE
:1043E000226A914231D103F0F002616A0139B2EBE5
:1043F000011F2CD103F4FE42A16AB2EB012F28D198
:1044000003F07842E16AB2EBC16F24D103F4C0013A
:10441000226B5208013AB1EB425F1ED103F0C06338
:10442000626B5208013AB3EB426F18D1002008E0EA
:1044300001207047012004E0012002E0012000E09B
:10444000184602B070BD0120FBE70120F9E701200A
:10445000F7E70120F5E70120F3E70120F1E701206C
:10446000EFE700BF001002400C809F01FCFFEEFE52
:104470001E4B9B6803F00C03042B33D01B4B9B6833
:1044800003F00C03082B2FD0184B9B6803F00C0390
:104490000C2B01D000207047144BDA6802F00302A5
:1044A000DB68C3F303130133032A11D01048B0FBB8
:1044B000F3F00E4BDB68C3F3062303FB00F00B4B5A
:1044C000DB68C3F3416301335B00B0FBF3F070477B
:1044D0000848B0FBF3F0054BDB68C3F3062303FB8E
:1044E00000F0ECE7024870470248704700100240B5
:1044F0000024F40000127A00002800F0ED80F8B5E6
:104500000C460546774B1B6803F00F038B420BD21A
:10451000744A136823F00F030B431360136803F00E
:104520000F038B4240F0DA802B6813F001031F4623
:1045300065D06B68032B30D0022B50D06A4B1B68C0
:1045400013F4806F00F0CC80FFF792FF674B984226
:1045500052D9654A936823F0F00343F080039360D7
:1045600080231F46604A936823F0030369680B4366
:104570009360FFF7C3FC06465B4B9B6803F00C039C
:104580006A68B3EB820F3AD0FFF7B8FC801B41F2A8
:1045900088339842F0D903207DE0534B1B6813F019
:1045A000007F01D1012076E0FFF7C2FC4F4B98421B
:1045B0001CD94D4B9B6813F0F00F06D02B6813F0FD
:1045C00002031F46CED0AB689BB9474A936823F0DD
:1045D000F00343F08003936080231F46C2E7424B01
:1045E0001B6813F4003FAFD1012054E000231F46A5
:1045F000B8E700231F46B5E700231F46B2E72B6844
:1046000013F0020F48D013F0040F04D0364A936819
:1046100043F4E06393602B6813F0080F06D0324A2E
:10462000936823F47C5343F4E06393602E4A9368C9
:1046300023F0F003A9680B4393602A4B1B6803F037
:104640000F03A34230D82B6813F0040F06D0264A7C
:10465000936823F4E063E9680B4393602B6813F0DD
:10466000080F07D0204A936823F46053296943EA6E
:10467000C1039360FFF7FCFE1B4B9B68C3F303135E
:104680001B4AD35C03F01F03D8401A4B18601A4B27
:104690001868FFF7EFFBF8BD802FCED1124A936860
:1046A00023F0F0039360C8E70E4A136823F00F036A
:1046B00023431360FFF722FC06460A4B1B6803F0F6
:1046C0000F03A342BFD0FFF719FC801B41F28833D0
:1046D0009842F2D90320DEE7012070470120DAE793
:1046E0000120D8E7002002400010024000B4C404BA
:1046F000F8DA00080000002008000020014B1868CC
:10470000704700BF0000002008B5FFF7F7FF054B1A
:104710009B68C3F30223044AD35C03F01F03D84011
:1047200008BD00BF00100240F0DA000808B5FFF72E
:10473000E5FF054B9B68C3F3C223044AD35C03F037
:104740001F03D84008BD00BF00100240F0DA000887
:10475000F0B583B00446036813F4002F6BD0AD4B63
:104760009B6D13F0805F1FD1AA4B9A6D42F080526F
:104770009A659B6D03F080530193019B01231E46B4
:10478000A54A136843F480731360FFF7B7FB05462F
:10479000A14B1B6813F4807F09D1FFF7AFFB401BCF
:1047A0000228F5D9032503E000231E46E8E700258B
:1047B00045BB984BD3F8903013F4407318D0226C5B
:1047C0009A4212D0934AD2F8903023F44073D2F830
:1047D000901041F48031C2F89010D2F8901021F47A
:1047E0008031C2F89010C2F8903013F0010F10D150
:1047F00045B9884AD2F8903023F44073216C0B43BA
:10480000C2F89030C6B1834A936D23F0805393650C
:1048100012E0FFF773FB07467E4BD3F8903013F09E
:10482000020FE5D1FFF76AFBC01B41F288339842C3
:10483000F2D90325DCE70025236813F0010F08D027
:10484000744AD2F8883023F0030361680B43C2F83E
:104850008830236813F0020F08D06E4AD2F88830EF
:1048600023F00C03A1680B43C2F88830236813F0CF
:10487000040F08D0674AD2F8883023F03003E1688B
:104880000B43C2F88830236813F0080F08D0614A40
:10489000D2F8883023F0C00321690B43C2F8883076
:1048A000236813F0200F08D05A4AD2F8883023F436
:1048B000406361690B43C2F88830236813F0400FEE
:1048C00008D0544AD2F8883023F44053A1690B43EE
:1048D000C2F88830236813F0800F08D04D4AD2F810
:1048E000883023F44043E1690B43C2F888302368E1
:1048F00013F4807F08D0474AD2F8883023F440333D
:10490000216A0B43C2F88830236813F4007F08D073
:10491000404AD2F8883023F44023616A0B43C2F83E
:104920008830236813F4806F0CD03A4AD2F888306C
:1049300023F44013A16A0B43C2F88830A36AB3F58D
:10494000801F57D0236813F4006F0CD0314AD2F87F
:10495000883023F44003E16A0B43C2F88830E36AED
:10496000B3F5800F4BD0236813F4805F0CD0294A35
:10497000D2F8883023F04073216B0B43C2F88830A3
:10498000236BB3F1807F3FD0236813F4005F0CD01A
:10499000204AD2F8883023F04063616B0B43C2F8A1
:1049A0008830636BB3F1006F38D0236813F4804F05
:1049B0000CD0184AD2F8883023F04063A16B0B4327
:1049C000C2F88830A36BB3F1006F2CD0236813F4C6
:1049D000004F0CD00F4AD2F8883023F04053E16BDF
:1049E0000B43C2F88830E36BB3F1805F20D02846D8
:1049F00003B0F0BDD36843F48013D360A2E7D3685B
:104A000043F48013D360AEE7D36843F48013D360DC
:104A1000BAE700BF0010024000700040D36843F4C2
:104A20008013D360C1E7D36843F48013D360CDE72C
:104A3000D36843F48033D360D9E700BF70B582B048
:104A40008646002363E0DEF808405D000320A840AE
:104A500024EA0004C868A8402043CEF80800DEF825
:104A6000044024EA0C044868C0F300109840204336
:104A7000CEF804005CE0DC0808345EF8240003F0A3
:104A80000705AD004FF00F0C0CFA05FC20EA0C0CEA
:104A90000869A84040EA0C004EF824005EE00520BA
:104AA00000E0002000FA0CF028430234544D45F891
:104AB000240054488468D04324EA02054E6816F462
:104AC000801F01D042EA04054E4CA560E46800EA6C
:104AD00004054E6816F4001F01D042EA0405494C53
:104AE000E560646800EA04054E6816F4003F01D0F2
:104AF00042EA0405434C6560246820404D6815F483
:104B0000803F01D042EA04003E4A106001330A6847
:104B100032FA03F071D04FF0010C0CFA03FC1CEADE
:104B20000202F3D0486800F00300013801288AD956
:104B3000486800F0030003280BD0DEF80C405D004D
:104B40000320A84024EA00048868A8402043CEF847
:104B50000C00486800F0030002288CD0DEF800004A
:104B60005C004FF0030C0CFA04FC20EA0C0C4868C3
:104B700000F00300A04040EA0C00CEF800004868B6
:104B800010F4403FC2D02048046E44F00104046693
:104B9000006E00F00100019001989C08A51C1848C7
:104BA00050F8255003F0030C4FEA8C0C0F2000FA4C
:104BB0000CF025EA0005BEF1904F3FF472AF1348A8
:104BC000864512D000F58060864510D000F58060E3
:104BD00086450ED000F5806086450CD000F58060DB
:104BE00086453FF45CAF06205CE701205AE70220CF
:104BF00058E7032056E7042054E702B070BD00BF19
:104C00000000014000040140001002400004004880
:104C10000AB1816170478162704730B5C46C056D1F
:104C20006560446D14B1846DC56D6560446C04F0BD
:104C30001F0E4FF0010C0CFA0EFC046CC4F804C0FB
:104C4000046863608368102B04D00368996003686C
:104C5000DA6030BD03689A600368D960F9E7000044
:104C600003680C4A934213D80B49DBB2083B0B4A4A
:104C7000A2FB0323426C22F003020A448264084A26
:104C8000C264C3F30413012202FA03F303657047FD
:104C90000449EAE70704024000080240CDCCCCCC2E
:104CA00080080240200802400379074A1A44920013
:104CB0004265064A8265013B03F01F03012202FAA6
:104CC00003F3C365704700BF3F82001040090240F4
:104CD000002859D010B5044602682C4B9A423BD8A4
:104CE0002B4B13442B49A1FB03131B099B0043646B
:104CF000294B0364022384F8253011686FF30E11E9
:104D0000A368E06803432069034360690343A06923
:104D10000343E0690343206A03430B4313602046C7
:104D2000FFF79EFFA368B3F5804F20D0A36C2279D4
:104D30001A60E36C226D5A606368013B032B19D93A
:104D400000236365A365E3650020E063012384F825
:104D5000253084F8240010BD104B13440D49A1FBED
:104D600003131B099B0043640D4B0364C2E700233C
:104D70006360DBE72046FFF797FF636D00221A6050
:104D8000A36DE26D5A60DFE701207047070402401F
:104D9000F8FFFDBFCDCCCCCC00000240F8FBFDBF3E
:104DA0000004024010B5044690F82400012843D0C6
:104DB000012084F8240094F82500012804D0002361
:104DC00084F82430022010BD022084F82500002041
:104DD000E063D4F800C0DCF8000020F00100CCF85B
:104DE00000002046FFF719FF236BD3B12268136838
:104DF00043F00E031360A36C1A6812F4803F03D0D3
:104E00001A6842F480721A60636D1BB11A6842F42A
:104E100080721A602268136843F001031360002057
:104E2000D1E72268136823F0040313602268136833
:104E300043F00A031360DEE70220C4E7034690F85C
:104E40002520022A09D00422C2630120012283F80E
:104E50002520002283F82420704701680A6822F088
:104E60000E020A60816C0A6822F480720A6001688E
:104E70000A6822F001020A60426C02F01F01006C15
:104E800001228A404260DA6C196D51605A6D42B15C
:104E9000116821F4807111609A6DD96D5160002004
:104EA000D4E71046D2E708B590F82530022B09D098
:104EB0000423C363012380F82530002280F82420D6
:104EC000184608BD0268136823F00E0313600268D9
:104ED000136823F001031360826C136823F480735A
:104EE0001360436C03F01F02016C012393404B607D
:104EF000C36C026D5A60436D33B11A6822F480723C
:104F00001A60836DC26D5A60012380F8253000233A
:104F100080F82430836B13B198470020D1E71846FE
:104F2000CFE708B5036C1968D0F800C0DCF800E0E2
:104F3000436C03F01F0304229A400A4218D01EF06B
:104F4000040F15D0DCF8003013F0200F05D1DCF889
:104F5000003023F00403CCF80030436C03F01F0250
:104F6000016C042393404B60036B03B1984708BD69
:104F700002229A400A421FD01EF0020F1CD0DCF819
:104F8000003013F0200F08D1DCF8003023F00A03C2
:104F9000CCF80030012380F82530436C03F01F0269
:104FA000016C022393404B60002380F82430C36AD5
:104FB000002BDCD09847DAE7082202FA03F30B4211
:104FC000D5D01EF0080FD2D0DCF8003023F00E034D
:104FD000CCF80030436C03F01F03016C012202FA8D
:104FE00003F34B60C26380F82520002380F824304F
:104FF000436B002BBBD09847B9E70000002836D19F
:105000003E4B1B6803F4C063B3F5806F08D03B4A86
:10501000D2F8803023F48073C2F8803000207047CB
:10502000364AD2F8803023F48073C2F88030136897
:1050300023F4C06343F400731360314B1B683222C6
:1050400002FB03F32F4AA2FB03239B0C013300E076
:10505000013B2A4A526912F4806F01D0002BF7D12C
:10506000264B5B6913F4806F44D100207047B0F584
:10507000007F08D0214A136823F4C06343F480639F
:105080001360002070471D4B1B6803F4C063B3F529
:10509000806F08D0194AD2F8803043F48073C2F888
:1050A000803000207047154AD2F8803043F4807376
:1050B000C2F88030136823F4C06343F400731360B4
:1050C0000F4B1B68322202FB03F30E4AA2FB0323A1
:1050D0009B0C013300E0013B084A526912F4806FD7
:1050E00001D0002BF7D1054B5B6913F4806F03D11E
:1050F0000020704703207047032070470070004075
:105100000000002083DE1B43024A936843F480437F
:105110009360704700700040002807DB00F01F021A
:10512000400901239340024A42F82030704700BFF3
:1051300000E100E0002808DB0901C9B200F160408D
:1051400000F5614080F80013704700F00F0009017E
:10515000C9B2014B1954704714ED00E000B500F0DE
:105160000700A0F1030CBCF1040F07D8C0F1070E33
:105170000430062806D84FF0000C03E04FF0040E70
:105180004FF0000C4FF0FF3303FA0EF021EA00015C
:1051900001FA0CF103FA0CF322EA030241EA0200DD
:1051A00000BD0000074AD36823F4E0631B041B0C16
:1051B000000200F4E060034343F0BF6343F40033B4
:1051C000D360704700ED00E010B50446054BD86889
:1051D000C0F30220FFF7C2FF01462046FFF7AAFFF7
:1051E00010BD00BF00ED00E008B5FFF795FF08BD5A
:1051F0000138B0F1807F0BD24FF0E0235861054AAF
:10520000F02182F823100020986107221A6170476C
:105210000120704700ED00E010B4144B03640168F6
:10522000D1F8802022F4F812446B42EA0442C1F81B
:1052300080200F4A42640168D1F8802022F0706219
:10524000846B42EA0462C1F880200A4A8264D83240
:10525000C264D83202651832426502E0002243F887
:10526000042B054A9342F9D910BC704700A40040B2
:1052700070A40040B0A400404FA7004030B50446E1
:105280009E464B68FBB908698B6818430B6840EA77
:1052900083400B6ACD6945EA036C8B694CEA030CC9
:1052A0004B694CEA030CCB684CEA0343646D0EEB8C
:1052B000CE0E04EBCE0C44F83E00CCF804300CF1DA
:1052C000080C00201CE00B69886818430B68184321
:1052D00040F08040DDE7C31C12F803E0831CD35C80
:1052E0001B0443EA0E6300F1010E12F80EE043EADC
:1052F0000E2312F800E043EA0E034CF8043B04309E
:10530000CC68024B1B5D8342E5D830BD08DB00084A
:10531000002800F0E38038B5044690F85C30D3B143
:105320002268936923F010039361FEF7E7FD0546B9
:1053300023689A6912F0080F12D0FEF7DFFD401BB8
:105340000A28F5D9236E43F001032366032384F86A
:105350005C30012038BD80F85D30FCF7EBFCDFE706
:105360009A6942F001029A61FEF7C8FD054623687A
:105370009A6912F0010F0DD1FEF7C0FD401B0A28FB
:10538000F5D9236E43F001032366032384F85C30D0
:105390000120DFE79A6942F002029A612268504BCD
:1053A0009A4242D0237C012B45D02268936943F076
:1053B00040039361637C012B43D02268936923F4FB
:1053C00080439361A37C012B41D02268936943F40D
:1053D000805393612268936923F44073A1680B435F
:1053E00093612268936923F0A4039361226813698F
:1053F00023F010031361E368012B2ED0002B31D072
:10540000022B54D02268936943F080039361226891
:10541000136943F010031361E368032B22D1226860
:10542000936943F0200393611CE06268A3F58063F5
:10543000C3F80025B6E72268936923F0400393611F
:10544000B8E72268936943F480439361BAE722681E
:10545000936923F480539361BCE72268936943F016
:1054600004039361A3695A1EE369013B1B0243EAEB
:105470004263226A013A13436269013A216843EAAE
:105480000243CB61A368B3F5407F16D02268D2F8FF
:10549000C030E16B0B43C2F8C0302046FFF7BCFEC2
:1054A0000020A0652066012384F85C3052E7226862
:1054B000936943F020039361D4E7A36A013BE26A56
:1054C000013A43EA0223226B013A43EA0213626A79
:1054D000013A216843EA0243CB60D7E701207047D5
:1054E0000064004090F85C30013BDBB2012B05D931
:1054F000036E43F002030366012070470B689BB103
:1055000010B4CA680B6943EA42724B698C6843EA7B
:105510008473406C496800EBC10C40F83120CCF832
:105520000430002010BC70478A68CB68DB0643EA71
:1055300082730A6943EA02434A691343026C496869
:1055400042F821300020704790F85C30012B05D0E4
:10555000036E43F00403036601207047022380F8C2
:105560005C300268936923F00103936100230366B2
:105570001846704790F85C30022B39D10268936965
:1055800043F00103936100230268916911F0010F58
:105590000CD10A2B01D80133F6E7036E43F0010367
:1055A0000366032380F85C3001207047936923F081
:1055B0001003936100230268916911F0080F0CD069
:1055C0000A2B01D80133F6E7036E43F001030366AB
:1055D000032380F85C3001207047936943F0020395
:1055E000936100238365012280F85C201846704790
:1055F000036E43F0080303660120704738B5044684
:1056000090F85C30022B1BD10368D3F8C40010F46F
:10561000001F05D0236E43F400732366012014E0BD
:10562000D3F8C430C3F301431D462046FFF726FEDE
:1056300022680123AB40C2F8CC30A365002004E00F
:10564000036E43F008030366012038BD70B50C46B5
:105650000D4690F85C10022940F09B80402C0CD045
:10566000D0F800C0DCF8981011F00F0F2AD1036EAB
:1056700043F480730366012090E0D0F800C0DCF8AA
:10568000901011F00F0F05D1036E43F48073036681
:10569000012083E0DCF8901011F0807105D0DCF877
:1056A000801011F4007100D00121DCF890C0CCF31F
:1056B000012C61440C460E46816C04EBC40C01EBDA
:1056C000CC0E16E0DCF8981011F0807105D0DCF8F3
:1056D000801011F4807100D00121DCF898C0CCF367
:1056E000012C61440C460E46C16C04EBC40C01EB6A
:1056F000CC0EDEF8001001F08041516061BBDEF895
:105700000010C1F38A411160DEF8001001F0005171
:105710009160DEF8001001F000411161BEF8041044
:10572000D161BEF8061001F00F01D160DEF804105F
:1057300001F480115161DEF8041001F4001191614F
:105740009EF8071001F07F011162DEF80410C90F06
:1057500051624FF0000C0CE0DEF8001021F06041C7
:105760001160D1E70EEB0C01097A03F80C100CF173
:10577000010C0B49D468095D6145F3D8402D04D074
:105780000368C3F89C60002008E00368C3F89460D5
:10579000F9E7036E43F008030366012070BD00BF04
:1057A00008DB000803685B6C03F007020A60C3F3C0
:1057B00002224A6003F018028A60C3F34012CA60F2
:1057C000C3F380120A61C3F3C0124A61C3F3C0225B
:1057D0008A61C3F30032CA61C3F340320A62C3F381
:1057E00080324A62C3F306438B620020704740292F
:1057F00005D00368D3F8980000F00F0070470368E5
:10580000D3F8900000F00F0070470368D3F8C4008D
:1058100000F00700704700002DE9F04383B0044614
:105820000F4616461D46FEF769FB0A9B1B1A03EB43
:105830000508FEF763FB8146284B1B68C3F3CB3397
:1058400008FB03F3019323689B6837EA03030CBF4B
:1058500001230023B3423DD0B5F1FF3FF3D0FEF763
:105860004DFB4B46C01A404507D2019A02B1424651
:10587000019B013B01939046E5E72268536823F0C2
:10588000E00353606368B3F5827F0BD0A36AB3F57E
:10589000005F14D0012384F85D30002384F85C306D
:1058A000032018E0A368B3F5004F02D0B3F5806F72
:1058B000ECD12268136823F040031360E6E7226806
:1058C000136823F4005313602268136843F40053F1
:1058D0001360DFE7002003B0BDE8F0830000002084
:1058E0002DE9F04782B006460C4615461F460023B8
:1058F0008DF80330FEF702FB0A9B1B1A03EB070827
:10590000FEF7FCFA8246D6F80090304B1B6803EB9A
:105910008303C3EBC3031B0D08FB03F3019302E0F6
:10592000B7F1FF3F12D133689B6803EA040CAC4522
:1059300047D0B4F5C06FF3D1002DF1D199F80C30F8
:10594000DBB28DF803309DF80330E9E7FEF7D6FAB5
:105950005346C01A404507D2019A02B14246019B04
:10596000013B01939046DEE73268536823F0E00381
:1059700053607368B3F5827F0BD0B36AB3F5005FF1
:1059800014D0012386F85D30002386F85C300320B4
:1059900018E0B368B3F5004F02D0B3F5806FECD1D7
:1059A0003268136823F040031360E6E73268136837
:1059B00023F4005313603268136843F400531360F8
:1059C000DFE7002002B0BDE8F08700BF0000002044
:1059D00070B582B004460B460E4615460092002272
:1059E0004FF4C051FFF77CFFB0B900953346024633
:1059F00080212046FFF710FFA8B9009533460246E4
:105A00004FF4C0612046FFF76BFF50B1236E43F0A7
:105A100020032366032004E0236E43F02003236663
:105A2000032002B070BD236E43F0200323660320E1
:105A3000F7E700286FD010B50446436A33B94368CE
:105A4000B3F5827F05D00023C36102E00023036128
:105A500043610023A36294F85D30002B52D00223EF
:105A600084F85D302268136823F040031360E36814
:105A7000B3F5E06F4CD90022B3F5706F04D0B3F5E5
:105A8000E06F01D00023A362636803F48273A1680E
:105A900001F404410B43216901F002010B436169E8
:105AA00001F001010B43A16901F400710B43E169AD
:105AB00001F038010B43216A01F080010B43A16A18
:105AC00001F4005120680B430360638B03F004036F
:105AD000616A01F010010B43616B01F008010B4397
